:020000040800F2
:10000000908E002025280008891600089516000803
:10001000B1160008B9160008C1160008000000005B
:10002000000000000000000000000000C9160008E9
:10003000D51600080000000011540008E116000861
:1000400041180008A1280008A128000891190008FB
:10005000A1280008A12800084D1800085D18000814
:10006000691800087518000881180008A128000800
:10007000A1280008A1280008A12800081D090008DF
:10008000A1280008A128000845190008A128000897
:10009000A1280008A1280008A12800088D18000840
:1000A000A1280008A1280008A1280008A12800080C
:1000B000A1280008A1280008A1280008A1280008FC
:1000C000A1280008A1280008A1280008A1280008EC
:1000D000A1280008A12800086D190008A12800081F
:1000E000D918000821190008A1280008A128000833
:1000F000A1280008A1280008A1280008A1280008BC
:10010000A1280008A1280008C5190008A128000896
:10011000A1280008A1280008DD190008D11900084D
:10012000A1280008A1280008A1280008A12800088B
:10013000A1280008A1280008A1280008A12800087B
:10014000A1280008A1280008A1280008A12800086B
:10015000A128000885190008A128000879190008BD
:10016000A1280008A1280008A1280008A12800084B
:10017000A1280008A1280008A1280008A12800083B
:10018000A1280008A128000880B582B000AF7860DF
:1001900041F6E033C2F20003DB6A002B14D008F012
:1001A0008BFE024641F6E033C2F20003DB6A1360C5
:1001B00041F6E033C2F200034FF00002DA6208F0C9
:1001C0007BFE03461B6820E0786807F0C5FA03460B
:1001D000002B02D04FF0FF3317E041F6E033C2F2BC
:1001E00000031B8E9BB2002BD2D041F6E033C2F24B
:1001F00000031B8E9BB203F1FF339AB241F6E0334A
:10020000C2F200031A864FF00003184607F10807F0
:10021000BD4680BD80B58CB000AFF860B9607A6033
:100220003B60BB6B002B03D14FF00103FB6202E08C
:100230004FF00003FB6241F6E033C2F200039B681B
:10024000BB62BB6A03F109037B62FB68786A1946EB
:1002500002F05AF87862786A4FF0140102F054F80C
:100260007862786A4FF0140102F04EF87862786A8A
:100270004FF0140102F048F87862786A4FF01401E8
:1002800002F042F87862786AF96A02F03DF8786222
:10029000BB68002B02D0BB681B6801E04FF0000375
:1002A000786A194602F030F878627B68002B02D039
:1002B0007B681B6801E04FF00003786A194602F082
:1002C00023F878623B68002B02D03B681B6801E092
:1002D0004FF00003786A194602F016F87862BB6B9B
:1002E000002B1BD0BB6B1B68002B09D1BB6B5A6862
:1002F00041F287339A4203DCBB6B41F288325A6089
:10030000BB6B1B68786A194601F0FEFF7862BB6B15
:100310005B68786A194601F0F7FF786241F20800DD
:10032000B96A4FF02C0201F019F807F1140341F2F9
:100330000800194607F054FA7B69002B28DBBB68DC
:10034000002B09D007F1140303F10403B868194620
:100350004FF0040209F064F87B68002B09D007F124
:10036000140303F10803786819464FF0040209F0FA
:1003700057F83B68002B09D007F1140303F10C0375
:10038000386819464FF0040209F04AF87B6906E024
:1003900008F092FD03467A691A604FF0FF33184661
:1003A00007F13007BD4680BD80B58AB000AFF86068
:1003B000B9607A603B6041F6E033C2F200039B68AB
:1003C0007B627B6A03F109033B62FB68386A19466A
:1003D00001F09AFF38627B68386A194601F094FF91
:1003E00038623B68386A194601F08EFF3862BB6B91
:1003F0009BB21846796A4FF00C0200F0AFFFBB6B5E
:100400009AB207F114031046194607F0E9F9BB69DF
:10041000002B04DDB868396B7A6B07F0F9F908F046
:100420004BFD0346BA691A60BB69184607F12807F5
:10043000BD4680BD80B588B004AFF860B9607A6011
:100440003B604FF0000300934FF00003019341F233
:1004500004030293F868B9687A683B68FFF7A4FF61
:100460000346184607F11007BD4680BD80B588B029
:1004700004AFF860B9607A603B60BB690093FB69C8
:10048000019341F20D030293F868B9687A683B68FA
:10049000FFF78AFF0346184607F11007BD4680BDE7
:1004A00090B591B002AFF860B9607A603B60F868CF
:1004B000FFF76AFEB862BB6A002B01D0BB6AB5E0E9
:1004C00041F6E033C2F200039B6B03F1010241F6F7
:1004D000E033C2F200039A6341F6E033C2F2000354
:1004E0009B687B627B6A03F10A033B623B6D812B55
:1004F00012D0832B1FD17B6803F10803FB624FF0FE
:10050000080387F836304FF0180387F837307B6AD6
:1005100003F122033B630FE04FF00003FB644FF055
:100520000003BB644FF0100387F837307B6A03F198
:100530001A033B6300E000BFFB68386A194601F00C
:10054000E3FE386297F83730A3F10403386A19469E
:1005500001F0DAFE38627B68386A194601F0D4FE91
:1005600038623B68386A194601F0CEFE38623B6D4E
:10057000832B0BD1386AF96A01F0C6FE386297F80E
:100580003630386A194601F0BFFE38624FF0000479
:100590000DE023B2BA68D3181A783B6B1A703B6B24
:1005A00003F101033B63234603F101039CB222B232
:1005B0007B689A42EDDB3B6D832B14D14FF0000436
:1005C0000DE023B2BA6CD3181A783B6B1A703B6BF0
:1005D00003F101033B63234603F101039CB222B202
:1005E000FB6C9A42EDDB3B6DD9B297F837309AB28B
:1005F0007B689BB2F86C80B2BC6C0094019008469A
:10060000796A00F0DDFE3B6D832B07D107F11403FF
:1006100041F20F00194607F0E3F806E007F1140372
:1006200041F20300194607F0DBF87B68184607F132
:100630003C07BD4690BD00BF80B588B004AFF860F0
:10064000B9607A603B604FF0000300934FF0000305
:1006500001934FF081030293F868B9687A683B68A8
:10066000FFF71EFF0346184607F11007BD4680BD81
:1006700080B588B004AFF860B9607A603B60FB6910
:10068000BA69009201934FF083030293F868B96846
:100690007A683B68FFF704FF0346184607F1100726
:1006A000BD4680BD90B484B000AF02460B46FA71DF
:1006B000BB714FF00003FB60BB7903F003034FEA0B
:1006C00083034FF00F0202FA03F3FB604FF4605311
:1006D000C4F20103BA794FEA9202D2B210464FF443
:1006E0006052C4F20102B9794FEA9101C9B201F135
:1006F000020152F82110FA686FEA0202114000F17B
:10070000020243F822104FF46053C4F20103BA7995
:100710004FEA9202D2B210464FF46052C4F2010284
:10072000B9794FEA9101C9B201F1020152F82110E1
:10073000FC79BA7902F003024FEA820204FA02F26B
:10074000114300F1020243F8221007F11007BD46E1
:1007500090BC704780B483B000AF0346FB714FF488
:100760006143CEF2000397F907204FEA5212F9795C
:1007700001F01F014FF0010000FA01F143F82210CF
:1007800007F10C07BD4680BC704700BF80B483B042
:1007900000AF0346FB714FF46143CEF2000397F9BB
:1007A00007204FEA5212F97901F01F014FF00100C2
:1007B00000FA01F102F1200243F8221007F10C07C0
:1007C000BD4680BC704700BF80B483B000AF786086
:1007D0007A6813464FEA43039B184FEA83037B6012
:1007E00000E000BF7B68002B0CBF00230123DBB2BD
:1007F0007A6802F1FF327A60002BF2D107F10C0720
:10080000BD4680BC704700BF80B58AB000AF4FF4D2
:10081000806007F09DFC4FF4806007F0D5FC00F08D
:10082000A3F90346002B63D140F65C63C2F20003D8
:100830009B68002B07D140F65C63C2F200034FF0C7
:1008400001029A6066E040F65C63C2F200039B68B6
:10085000022B1BD140F65C63C2F200034FF006028C
:100860009A604FF40060C4F202004FF0020104F0FD
:10087000CDF940F65C63C2F200031B694FF0010042
:1008800019464FF00A0200F08FF943E040F65C632E
:10089000C2F200039B68032B17D140F65C63C2F2DF
:1008A00000034FF005029A6040F65C63C2F2000359
:1008B000DA6840F65C63C2F200039B884FF00000E8
:1008C00011461A4600F070F924E040F65C63C2F26B
:1008D00000039B683A4610464EF61041C0F60001F0
:1008E0001A4608F0EBFE3B46184608F029FA11E0DC
:1008F00040F65C63C2F200039B683A4610464EF62F
:100900003041C0F600011A4608F0D8FE3B461846B2
:1009100008F016FA07F12807BD4680BD80B500AF84
:1009200046F27000C4F202004FF0000104F0F6FB42
:1009300000F01AF846F27000C4F202004FF02001F5
:10094000C2F2000104F07AFC46F25800C4F2020040
:100950004FF0C05104F072FC40F20C03C2F20003ED
:100960004FF000021A6080BD80B584B000AF46F23F
:100970007000C4F202004FF02001C2F2000104F046
:100980001BFC0346BB6046F25800C4F202004FF065
:10099000C05104F011FC03467B6040F65C63C2F278
:1009A00000039B68062B2CD1BB68002B00F0D7807E
:1009B0007B68002B00F0D38000F024FC00F040FCAA
:1009C0000346002B07D14FF40060C4F202004FF041
:1009D000020104F00DF940F65C63C2F200034FF02F
:1009E00002029A6040F65C63C2F200031A6840F6A5
:1009F0005C63C2F200031B6903F1050318469047CC
:100A0000ADE040F65C63C2F200039B68072B2FD178
:100A10007B68002B00F0A38000F0F4FB40F65C63E1
:100A2000C2F200031B6903F105033B603B689B882E
:100A3000A3F58063FB81FB8903F00103002B03D145
:100A4000FB8903F10103FB8140F65C63C2F2000302
:100A50001B6903F20A42FB891046194600F092F81E
:100A600040F65C63C2F200034FF008029A6076E041
:100A700040F65C63C2F200039B68082B22D17B68BE
:100A8000002B6CD000F0BEFB4FF40060C4F20200FB
:100A90004FF0020104F0ACF840F65C63C2F20003D0
:100AA0004FF002029A6040F65C63C2F200031A68DB
:100AB00040F65C63C2F200031B6903F105031846AC
:100AC00090474CE040F65C63C2F200039B68052B44
:100AD00020D1BB68002B42D000BF4FF46050C4F25D
:100AE00000004FF0800106F05FFF0346002BF4D1B9
:100AF00000F088FB4FF40060C4F202004FF00201E6
:100B000004F076F840F65C63C2F200034FF0020294
:100B10009A6024E040F65C63C2F200039B68042BF9
:100B20001DD1BB68002B1AD040F65C63C2F20003F3
:100B30004FF005029A6040F65C63C2F20003DB6886
:100B400003F5806240F65C63C2F200039B88A3F564
:100B500080634FF0000011461A4600F0F1F807F1EB
:100B60001007BD4680BD00BF80B500AF4FF000004C
:100B7000C4F202004FF4806104F01CF803461846EA
:100B800080BD00BF80B582B000AF78600B467B802F
:100B90007B884FF0010079681A4600F005F807F1EC
:100BA0000807BD4680BD00BF80B584B000AFF860C7
:100BB000B9607A604FF03200FFF706FE46F2580047
:100BC000C4F202004FF0000104F0A8FA46F27000EF
:100BD000C4F202004FF0000104F0A0FAFB68012B00
:100BE00032D1BB6846F25800C4F2020019464FF0F9
:100BF000000204F0CBFA7B689BB246F25800C4F2C4
:100C00000200194604F0A6FA40F67060C2F2000035
:100C10004FF003017A6808F0A5FC40F67063C2F259
:100C2000000346F27000C4F2020019464FF00002C1
:100C300004F0ACFA7B689BB246F27000C4F202008A
:100C4000194604F087FA34E040F65C63C2F2000310
:100C50001B6918464FF000017A6808F083FC40F6E3
:100C60005C63C2F200031B6946F25800C4F2020042
:100C700019464FF0000204F089FA7B689BB246F2F5
:100C80005800C4F20200194604F064FABB6846F248
:100C90007000C4F2020019464FF0000204F076FA28
:100CA0007B689BB246F27000C4F20200194604F061
:100CB00051FA46F25800C4F202004FF010014FF012
:100CC000010204F0EBFA46F25800C4F202004FF0C1
:100CD000010104F023FA46F27000C4F202004FF062
:100CE000010104F01BFA00BF46F27000C4F20200DA
:100CF00004F03EFA0346002BF6D100BF46F258003E
:100D0000C4F2020004F034FA0346002BF6D100BF0F
:100D100040F20C03C2F200031B68002BF8D100BFA5
:100D20004FF46050C4F200004FF0800106F03CFE2A
:100D30000346002BF4D107F11007BD4680BD00BF6C
:100D400080B584B000AFF860B9607A604FF03200CF
:100D5000FFF73AFD46F25800C4F202004FF00001DE
:100D600004F0DCF946F27000C4F202004FF000011A
:100D700004F0D4F9FB68012B32D1BB6846F258006D
:100D8000C4F2020019464FF0000204F0FFF97B683C
:100D90009BB246F25800C4F20200194604F0DAF998
:100DA00040F67060C2F200004FF003017A6808F06C
:100DB000D9FB40F67063C2F2000346F27000C4F241
:100DC000020019464FF0000204F0E0F97B689BB284
:100DD00046F27000C4F20200194604F0BBF934E098
:100DE00040F65C63C2F200031B6918464FF0000135
:100DF0007A6808F0B7FB40F65C63C2F200031B6937
:100E000046F25800C4F2020019464FF0000204F006
:100E1000BDF97B689BB246F25800C4F20200194645
:100E200004F098F9BB6846F27000C4F2020019465B
:100E30004FF0000204F0AAF97B689BB246F2700002
:100E4000C4F20200194604F085F946F25800C4F2D3
:100E500002004FF0010104F061F946F27000C4F2A3
:100E600002004FF0010104F059F900BF46F2700092
:100E7000C4F2020004F07CF90346002BF6D100BF57
:100E800046F25800C4F2020004F072F90346002B47
:100E9000F6D100BF40F20C03C2F200031B68002B26
:100EA000F8D100BF4FF46050C4F200004FF0800151
:100EB00006F07AFD0346002BF4D107F11007BD467A
:100EC00080BD00BF80B582B000AF786040F65C6343
:100ED000C2F200034FF000029A6040F65C63C2F277
:100EE00000037A681A6040F65C63C2F2000341F2C4
:100EF0006042C2F200021A6140F65C63C2F2000373
:100F00004FF000029A8040F65C63C2F200034FF09B
:100F10000002DA8006F07AFD41F6E033C2F2000307
:100F20001B6A984707F10807BD4680BD80B500AF32
:100F300040F65C63C2F200031B69002B06D040F64A
:100F40005C63C2F200034FF000021A6100F02CF95A
:100F500080BD00BF80B584B000AF78600B467B8059
:100F60004FF00003FB737B8803F00103002B03D1D8
:100F7000FB7B03F10103FB737B684FF001021A70E6
:100F80007B6803F101037988FA7B8A1802F47F42B7
:100F90004FEA2222D2B21A707B6803F102037A88E8
:100FA000D1B2FA7B8A18D2B21A707B6803F10303BC
:100FB0004FF000021A707B6803F104034FF0000247
:100FC0001A70FB7B9AB27B88D3189BB203F105039E
:100FD0007B8040F65C63C2F200039B68002B07D164
:100FE00000BF40F65C63C2F200039B68012BF8D19E
:100FF00040F65C63C2F200039B68012B30D14FF4D2
:101000000060C4F202004FF0020103F0FFFD4FF058
:10101000000079684FF00402FFF792FE7B6803F14D
:1010200004034FF0000019464FF00602FFF788FE58
:1010300040F65C63C2F200034FF002029A604FF484
:101040000060C4F202004FF0020103F0D1FD00BFC6
:1010500040F65C63C2F200039B68022BF8D13EE0CD
:1010600000BF40F65C63C2F200039B68022BF8D11C
:101070004FF02800FFF78AFB40F65C63C2F20003E2
:101080004FF003029A6040F65C63C2F200037A6894
:10109000DA6040F65C63C2F200037A889A804FF40B
:1010A000806007F055F84FF4806007F08DF84FF03E
:1010B0002800FFF74FFB4FF40060C4F202004FF02E
:1010C000020103F0A3FD4FF02800FFF743FB00BF30
:1010D00040F65C63C2F200039B68022BF8D14FF02C
:1010E0000003184607F11007BD4680BD80B500AF6C
:1010F00000F020F880BD00BF80B582B000AF03468D
:10110000FB71FB79002B08D04FF40060C4F20200A1
:101110004FF4005103F06CFD07E04FF40060C4F29F
:1011200002004FF4005103F071FD07F10807BD46BE
:1011300080BD00BF80B584B000AF4FF480404FF059
:10114000010102F01FFA4FF002004FF00101FFF71A
:10115000A9FA4FF4806007F037F84FF48063BB6062
:101160004FF00103BB734FF000033B734FF00C03D0
:101170007B7307F10803184606F04EFF4FF001039A
:10118000FB714FF028033B714FF001037B714FF06F
:101190000103BB7107F10403184607F025F807F1B6
:1011A0001007BD4680BD00BF80B584B000AF4FF4CE
:1011B000806007F009F84FF48063BB604FF00003D4
:1011C000BB734FF000033B734FF00C037B7307F1CD
:1011D0000803184606F020FF4FF00003FB714FF0A4
:1011E00028033B714FF001037B714FF00103BB718A
:1011F00007F10403184606F0F7FF07F11007BD4694
:1012000080BD00BF80B500AF46F27000C4F202009E
:101210004FF02001C2F2000104F010F846F258002D
:10122000C4F202004FF0C05104F008F84FF46050CF
:10123000C4F200004FF0710106F0D6FB80BD00BF84
:1012400080B584B000AF40F65C63C2F200031B6956
:10125000BB604FF00003FB60BB6803F105037B60DC
:101260007B681B78022B02D0042B45D06FE0BB6853
:101270003B603B689A8840F2FF339A4212D94FF0A4
:101280000703FB60BB6803F10A0318464FF4806153
:10129000FFF778FC40F65C63C2F200034FF00702F0
:1012A0009A6054E0BB6803F1050318464FF0030150
:1012B00001F07CF80346FB60FB6803F00103002BA0
:1012C00003D1FB6803F10103FB60FB68002B0BD02B
:1012D000BB6803F10A02FB689BB210461946FFF790
:1012E00051FC4FF00003FB6040F65C63C2F2000368
:1012F0004FF008029A602AE0BB687B60BB6803F18C
:1013000008031B78FB60FB6803F1FF33FB60FB689D
:1013100003F00103002B03D0FB6803F10103FB6022
:10132000FB68002B0BD0BB6803F10A02FB689BB281
:1013300010461946FFF726FC4FF00003FB6040F60D
:101340005C63C2F200034FF008029A6000BF4FF0E6
:101350000003184607F11007BD4680BD80B584B074
:1013600000AF396013460246FA807B713B6803F197
:101370000503FB60FB684FF001021A70FB6803F184
:101380000103FB60FB88F868194600F0EFFFF86086
:10139000FB687A791A70FB6803F10103FB607B79C3
:1013A0009BB203F104039BB238681946FFF7D2FDE4
:1013B0004FF00003184607F11007BD4680BD00BF7F
:1013C00080B586B000AFB9600146F973BA81FB8081
:1013D000BB6803F105037B617B694FF002021A7061
:1013E0007B6903F101037B617B69FA7B1A707B697E
:1013F00003F101037B61BB89DAB27B691A707B69F7
:1014000003F101037B61BA89FB88D3189AB2BB8CC4
:10141000D3189BB27869194600F0A8FF7861BA89A1
:10142000FB88D3189AB2BB8CD3189BB203F1050387
:101430009BB2B8681946FFF78DFD4FF000031846C0
:1014400007F11807BD4680BD80B586B000AFB96012
:101450000146F9817A73FB80BB6803F105037B6168
:101460007B694FF002021A707B6903F101037B6113
:10147000FB89DAB27B691A707B6903F101037B6136
:101480007B697A7B1A707B6903F101037B617B7B4B
:101490009AB2FB88D3189BB27869194600F066FFB0
:1014A00078617B7B9AB2FB88D3189BB203F105036A
:1014B0009BB2B8681946FFF74DFD00BF07F118074A
:1014C000BD4680BD80B588B000AFB9607A60024685
:1014D000FA73BB81BB6803F10503BB61BB6803F111
:1014E00005037B617B694FF003021A707B6903F18E
:1014F00001037B617B69FA7B1A707B6903F101034D
:101500007B61BB8903F102039BB27869194600F045
:101510002DFF7861BB89B3F57A7F1CD8BB897869C8
:10152000194600F023FFBB897869194600F01EFFB9
:101530007861BB6803F10B02BB89104679681A46D3
:1015400007F06EFFBB8903F106039BB2B86819462A
:10155000FFF700FD60E0BA8944F6D353C1F262039D
:10156000A3FB02134FEA9313FB83FB8B4FEA430366
:101570009AB2BB89D3189BB203F102039BB278697C
:10158000194600F0F3FE78694FF47A7100F0EEFE30
:101590007861BB6803F10B03184679684FF47A72DF
:1015A00007F03EFFBB89A3F57A73BB817B6803F527
:1015B0007A737B60B86840F2EE31FFF7CBFC28E02D
:1015C000BB89B3F57A7F05D8BB89FB834FF0000355
:1015D000BB8106E04FF47A73FB83BA89FB8BD31A85
:1015E000BB81BB69FA8B1A80BB6903F10202FB8BDA
:1015F000104679681A4607F013FFFB8B7A68D318F8
:101600007B60FB8B03F102039BB2B8691946FFF7BD
:10161000A1FCBB89002BD3D107F12007BD4680BDBB
:1016200080B500AF40F6D113C2F200031B78DBB2E5
:10163000012B1AD140F67C43C2F200031B78012B28
:1016400001D101F031F940F6D213C2F200031B7848
:10165000DBB2012B01D101F01BF840F6D113C2F22D
:1016600000034FF000021A700DE040F6D113C2F2F1
:1016700000031B78DBB203F1FF33DAB240F6D1137B
:10168000C2F200031A7080BD80B400AFBD4680BCBA
:10169000704700BF80B400AF1EF0040F0CBFEFF323
:1016A0000880EFF3098000F09FB9BD4680BC704709
:1016B00080B400AFFEE700BF80B400AFFEE700BF1C
:1016C00080B400AFFEE700BF80B400AFBD4680BC71
:1016D000704700BF80B400AFBD4680BC704700BFFC
:1016E00080B500AF40F60023C2F200031B6803F18F
:1016F000010240F60023C2F200031A6040F6042300
:10170000C2F200031B6803F1010240F60423C2F297
:1017100000031A6040F60823C2F200031B6803F1BD
:10172000010240F60823C2F200031A6006F000FC32
:1017300040F60823C2F200031B68312B16D940F68D
:101740000823C2F200034FF000021A6040F6D053A3
:10175000C2F200031B78002B08D040F6D153C2F22E
:1017600000031B78002B01D004F0AEFC40F60423EC
:10177000C2F200031B68092B21D940F6E413C2F220
:1017800000031B68002B13DB40F6E413C2F20003D6
:101790001B6803F1FF3240F6E413C2F200031A6043
:1017A00040F60423C2F200034FF000021A6006E084
:1017B00040F6E413C2F200034FF000021A6040F654
:1017C0000023C2F200031B68092B37D940F60C2313
:1017D000C2F200031B6803F1010240F60C23C2F2BF
:1017E00000031A6040F60C23C2F200031B68012BB1
:1017F00007D14FF48060C4F202004FF4807103F00F
:10180000F7F940F60C23C2F200031B681C2B0ED91B
:101810004FF48060C4F202004FF4807103F0F6F9D7
:1018200040F60C23C2F200034FF000021A6040F6AB
:101830000023C2F200034FF000021A6080BD00BF17
:1018400080B400AFBD4680BC704700BF80B500AF1C
:101850004FF0010006F08CFC80BD00BF80B400AFEB
:10186000BD4680BC704700BF80B400AFBD4680BCA1
:10187000704700BF80B400AFBD4680BC704700BF5A
:1018800080B400AFBD4680BC704700BF80B500AFDC
:101890004FF0200006F06CFC0346012B01D102F052
:1018A000E7FD4FF0400006F063FC4FF0800006F0CB
:1018B0005FFC0346012B05D14EF65040C0F60000F8
:1018C00007F03EFA4FF4807006F052FC4FF40070BF
:1018D00006F04EFC80BD00BF80B500AF4FF48060C5
:1018E00006F046FC0346012B01D1FEF78DFF4FF4B5
:1018F000006006F03DFC4FF4805006F039FC4FF4D8
:10190000005006F035FC0346012B07D14FF4005080
:1019100006F01EFC4FF4005006F056FC80BD00BFE0
:1019200080B500AF4FF4805007F056F90346002B06
:1019300007D04FF4805007F095F94FF4003006F0CF
:1019400043FC80BD80B500AF4FF40050C4F20100ED
:1019500040F2052101F000FF4FF40050C4F20100F5
:101960004FF4837101F0F8FE80BD00BF80B400AF7A
:10197000BD4680BC704700BF80B400AFBD4680BC90
:10198000704700BF80B400AFBD4680BC704700BF49
:1019900080B500AF4FF4804007F01EF90346002BDE
:1019A0000FD04FF48060C4F202004FF4004103F006
:1019B0003BF94FF4804007F055F94FF4800006F0F2
:1019C00003FC80BD80B400AFBD4680BC704700BF43
:1019D00080B400AFBD4680BC704700BF80B400AF8C
:1019E000BD4680BC704700BF80B483B000AF786054
:1019F000FEE700BF90B587B000AF0346FB71F979F1
:101A000040F61022C2F200020B464FEA43035B1875
:101A10004FEAC303D31803F104031B68FB60FB68A0
:101A2000002B00F0458140F6D113C2F200031B7871
:101A3000DBB203F10103DAB240F6D113C2F20003C4
:101A40001A7040F64023C2F200031B68002B11D12C
:101A5000FA7913464FEA43039B184FEAC30340F653
:101A60001022C2F200029A1840F64023C2F200038C
:101A70001A601AE140F64023C2F200031B687B6142
:101A8000FB683B610DE13A697B695B68D31A3B6196
:101A90003B69002B80F2CC807B695B69002B3ED0D8
:101AA0007B695969FA7913464FEA43039B184FEA59
:101AB000C30340F61022C2F200029B180B61F979B1
:101AC0007B69586940F61022C2F200020B464FEAC9
:101AD00043035B184FEAC303D31803F114031860E0
:101AE000F97940F61022C2F200020B464FEA430396
:101AF0005B184FEAC303D31803F110037A691A6025
:101B0000FA7913464FEA43039B184FEAC30340F6A2
:101B10001022C2F200029A187B695A6136E0F97904
:101B200040F64023C2F20003186840F61022C2F2C9
:101B300000020B464FEA43035B184FEAC303D31876
:101B400003F11003186040F64023C2F20003196845
:101B5000FA7913464FEA43039B184FEAC30340F652
:101B60001022C2F200029B184B61FA7913464FEA29
:101B700043039B184FEAC30340F61022C2F200024F
:101B80009A1840F64023C2F200031A60F979F879F6
:101B900040F61022C2F2000203464FEA43031B182C
:101BA0004FEAC303D31803F110031B685A683B695B
:101BB000D01840F61022C2F200020B464FEA43034F
:101BC0005B184FEAC303D31803F104031860F979D3
:101BD00040F61022C2F200020B464FEA43035B18A4
:101BE0004FEAC303D31803F110031868F97940F6DC
:101BF0001022C2F200020B464FEA43035B184FEA81
:101C0000C303D31803F110031B685C68F97940F62D
:101C10001022C2F200020B464FEA43035B184FEA60
:101C2000C303D31803F104031B68E31A43603CE0C9
:101C30003B69002B32DB7B691B69002B2ED1F979C4
:101C400040F61022C2F200020B464FEA43035B1833
:101C50004FEAC303D31803F114037A691A60FA79BF
:101C600013464FEA43039B184FEAC30340F6102282
:101C7000C2F200029A187B691A61F979386940F654
:101C80001022C2F200020B464FEA43035B184FEAF0
:101C9000C303D31803F10403186006E07B691B69D2
:101CA0007B617B69002B7FF4EEAEFFF7B9FC00E0AF
:101CB00000BF07F11C07BD4690BD00BF80B584B0D2
:101CC00000AF0346FB71FA7913464FEA43039B18B2
:101CD0004FEAC30340F61022C2F200029B18FB60D9
:101CE00040F6D113C2F200031B78DBB203F101030B
:101CF000DAB240F6D113C2F200031A70FB685B69D6
:101D0000002B0BD1FB681B69002B07D140F6402349
:101D1000C2F200034FF000021A6049E0FB685B6901
:101D2000002B1CD1FB681A6940F64023C2F2000365
:101D30001A6040F64023C2F200031B684FF0000215
:101D40005A61FB681B69FA6812695168FA6852683F
:101D50008A185A60FB684FF000021A6128E0FB689D
:101D60001B69002B09D1FB685B694FF000021A6107
:101D7000FB684FF000025A611AE0FB685B69FA6881
:101D800012691A61FB681B69FA6852695A61FB683B
:101D90001B69FA6812695168FA6852688A185A60B1
:101DA000FB684FF000021A61FB684FF000025A61B5
:101DB000FFF736FC07F11007BD4680BD80B582B045
:101DC00000AF40F64023C2F200031B687B602BE0AB
:101DD0007B685B78002B0CD17B681B781846FFF77B
:101DE0006DFF7B684FF001029A707B68DB68984753
:101DF00014E07B685B78012B10D17B681B78184658
:101E0000FFF75CFF7B689A687B685A607B681B7889
:101E10001846FFF7EFFD7B68DB68984740F64023E4
:101E2000C2F200031B687B607B68002B03D07B68D9
:101E30005B68002BCCD007F10807BD4680BD00BF12
:101E400080B500AF40F6D113C2F200031B78DBB2BD
:101E5000012B0ED940F67C43C2F200034FF0010281
:101E60001A7040F67E43C2F200034FF001021A706E
:101E700001E0FFF7A3FF80BD80B58AB000AF7860B6
:101E800039604FF000037B624FF000033B624FF07C
:101E90000003FB614FF00003BB617B681B8A9BB2B0
:101EA0007B627B6A23F440537B623B68DB887A6AFF
:101EB00013437B627B6A9AB27B681A827B689B8938
:101EC0009BB27B627B6A23F4B05323F00C037B62EA
:101ED0003B689A883B681B8913439AB23B685B89CD
:101EE00013439BB27A6A13437B627B6A9AB27B6824
:101EF0009A817B689B8A9BB27B627B6A23F44073E6
:101F00007B623B689B897A6A13437B627B6A9AB2E5
:101F10007B689A8207F10803184601F0AFF97A68E6
:101F20004FF48053C4F201039A4206D07A684FF40A
:101F3000A053C4F201039A4202D17B693B6201E0E3
:101F40003B693B627B689B899BB29BB21BB2002BB7
:101F50000FDA3A6A13464FEA83039B184FEA83026B
:101F60009A183B681B684FEA4303B2FBF3F3FB612B
:101F70000EE03A6A13464FEA83039B184FEA830246
:101F80009A183B681B684FEA8303B2FBF3F3FB61CB
:101F9000FA6948F21F53C5F2EB13A3FB02134FEA91
:101FA00053134FEA03137B627B6A4FEA13134FF01C
:101FB000640202FB03F3FA69D31ABB617B689B8955
:101FC0009BB29BB21BB2002B12DABB694FEAC30370
:101FD00003F1320248F21F53C5F2EB13A3FB0213C5
:101FE0004FEA531303F007037A6A13437B6211E04D
:101FF000BB694FEA031303F1320248F21F53C5F2E3
:10200000EB13A3FB02134FEA531303F00F037A6A97
:1020100013437B627B6A9AB27B681A8107F12807B7
:10202000BD4680BD80B483B000AF78600B46FB70C6
:10203000FB78002B08D07B689B899BB243F400534C
:102040009AB27B689A8107E07B689B899BB223F4F4
:1020500000539AB27B689A8107F10C07BD4680BC99
:10206000704700BF80B483B000AF78600B467B80C0
:102070007B884FEAC3534FEAD3539AB27B689A8066
:1020800007F10C07BD4680BC704700BF80B485B027
:1020900000AF78600B467B804FF00003FB737B68DA
:1020A0001B889AB27B8813409BB2002B03D04FF061
:1020B0000103FB7302E04FF00003FB73FB7B184648
:1020C00007F11407BD4680BC704700BF80B483B0E1
:1020D00000AF0346FB714FF02003C4F20E23FA79E0
:1020E0001A6007F10C07BD4680BC704780B582B00E
:1020F00000AF00F03BF84FF0000006F0D3FC0246C2
:1021000043F2F2239A4205D000F030F84FF0010379
:10211000FB7125E04FF07B0001F05EFA0346002BD7
:1021200003D14FF07A0001F057FA4FF080504FF092
:10213000010101F0FDF94FF00100FFF7C7FF06F0C4
:10214000C9F94FF4807006F027FD4FF4003006F017
:102150003BF84FF4800006F037F84FF00003FB71B6
:10216000FB79184607F10807BD4680BD80B584B0ED
:1021700000AF4FF080504FF0010101F0D9F94FF05E
:102180000100FFF7A3FF4FF0010001F047F800BF87
:102190004FF0410001F020FA0346002BF8D04FF435
:1021A000807001F051F94FF0010001F087F906F05D
:1021B00091F94FF07F03BB604FF0FF03FB604FF0DE
:1021C00000037B6007F10403184606F0C7F841F6E8
:1021D0006823C2F200034FF00002DA7041F6682370
:1021E000C2F200034FF000021A7041F66823C2F2F7
:1021F00000034FF000025A7041F66823C2F2000358
:102200004FF000029A7041F66823C2F200034FF0CB
:1022100000021A7341F66823C2F200034FF0000275
:102220009A6041F66823C2F200034FF000025A6040
:102230004FF001004FF4807141F66822C2F20002B3
:1022400006F0E2FA4FF480504FF0000106F044FC33
:102250004FF480704FF0000106F094FB4FF4807053
:1022600006F09AFC41F68023C2F200034FF0000210
:10227000DA7041F68023C2F200034FF001025A7077
:1022800041F68023C2F200034FF001029A7041F63A
:102290008023C2F200034FF006021A704FF00100D3
:1022A00041F68021C2F2000106F00EFA41F67C23CD
:1022B000C2F200034FF00002DA7041F67C23C2F252
:1022C00000034FF000021A7041F67C23C2F20003B3
:1022D0004FF000025A7041F67C23C2F200034FF027
:1022E00000029A704FF0010041F67C21C2F2000119
:1022F00006F048F94FF0000043F2F22106F0B6FB79
:1023000007F11007BD4680BD80B483B000AF786090
:1023100039603B68DAB27B681A707B6803F10103AD
:102320007B603B684FEA1323DAB27B681A707B68E4
:1023300003F101037B603B684FEA1343DAB27B6829
:102340001A707B6803F101037B603B684FEA1363FB
:10235000DAB27B681A707B6803F101037B607B68EB
:10236000184607F10C07BD4680BC704780B483B0A7
:1023700000AF78600B467B807B88DAB27B681A708E
:102380007B6803F101037B607B884FEA13239BB2D8
:10239000DAB27B681A707B6803F101037B607B68AB
:1023A000184607F10C07BD4680BC704780B483B067
:1023B00000AF78600B467B807B8803F101037A686D
:1023C000D3181B784FEA03239AB27B887968CB181D
:1023D0001B78D3189BB2184607F10C07BD4680BC8A
:1023E000704700BF80B483B000AF78600B467B803D
:1023F0007B8803F103037A68D3181B784FEA0362E2
:102400007B8803F102037968CB181B784FEA0343FA
:10241000D2187B8803F101037968CB181B784FEA47
:102420000323D2187B887968CB181B78D3181846F9
:1024300007F10C07BD4680BC704700BF80B582B075
:1024400000AF4FF002004FF0010101F047F83B46AA
:10245000184602F091FB4FF441433B604FF00303F9
:102460007B714FF001033B714FF00003FB714FF0A4
:102470000003BB713B464FF48060C4F20200194672
:1024800002F0D8FA4FF48060C4F202004FF4807179
:1024900002F0AEFB4FF48060C4F202004FF48041C2
:1024A00002F0A6FB4FF48060C4F202004FF400413A
:1024B00002F09EFB07F10807BD4680BD80B487B0DF
:1024C00000AF78607B681B79FB737B684FF000027C
:1024D0005A7140F64443C2F200031B683B613B69FA
:1024E0001B79FA7B9A422AD13A697B689A4226D0B4
:1024F0003B69002B23D040F64843C2F20003D3E9E6
:10250000000140F62063C2F20003D3E900239942A0
:1025100008BF904213D23B6959898AB24FF0000339
:1025200040F62061C2F20001D1E90001801841EBC0
:10253000030140F64843C2F20003C3E9000140F63C
:102540003C43C2F200031B683B613B69002B0DD189
:1025500040F6D213C2F200034FF001021A7040F6A7
:102560003C43C2F200037A681A603AE03B691B7987
:10257000FA7B9A4213D240F6D213C2F200034FF014
:1025800001021A707B683A695A623B697A689A62FA
:1025900040F63C43C2F200037A681A6021E03B69CE
:1025A0005B6A7B6109E07B691B79FA7B9A4208D3FD
:1025B0007B693B617B695B6A7B617B69002BF2D144
:1025C00000E000BF7B687A695A623B697A685A62A8
:1025D0007B683A699A627B69002B02D07B697A68D2
:1025E0009A6207F11C07BD4680BC704780B483B077
:1025F00000AF78607B685B6A002B0BD17B689B6ABD
:10260000002B07D140F63C43C2F200034FF000021A
:102610001A6037E07B689B6A002B13D17B685A6A8B
:1026200040F63C43C2F200031A607B684FF00002A0
:102630005A6240F63C43C2F200031B684FF00002AE
:102640009A621FE07B685B6A002B09D17B689B6AFA
:102650004FF000025A627B684FF000029A6211E06C
:102660007B689B6A7A68526A5A627B685B6A7A689E
:10267000926A9A627B684FF000025A627B684FF060
:1026800000029A6207F10C07BD4680BC704700BF8C
:1026900080B584B000AF40F64443C2F200031B682B
:1026A000FB6040F63C43C2F200031B68BB60BB68A2
:1026B000002B00F0B08040F64043C2F200031B68DC
:1026C000FA689A4240F0A78040F6D113C2F20003A4
:1026D0001B78DBB2012B00F29E8040F6D013C2F2D1
:1026E00000031B78DBB2002B40F0958040F6D2133C
:1026F000C2F200034FF000021A70FB681B79FB71F5
:10270000BB681B79BB71FB685B79012B0DD040F670
:102710004043C2F20003BA681A60BB684FF001027E
:102720005A71B868FFF762FF38E0BA79FB799A42CC
:1027300010D240F64043C2F20003BA681A60F8684B
:10274000FFF7BCFEB868FFF751FFBB684FF001020E
:102750005A7123E0FA79BB799A425ED140F6484338
:10276000C2F20003D3E9000140F62063C2F2000385
:10277000D3E90023994208BF90424ED140F640432E
:10278000C2F20003BA681A60F868FFF797FEB868EB
:10279000FFF72CFFBB684FF001025A7140F640432F
:1027A000C2F200031B681A7940F63C43C2F20003F0
:1027B0001B681B799A4217D140F64043C2F20003CE
:1027C0001B6859898AB24FF0000340F62061C2F2BB
:1027D0000001D1E90001801841EB030140F64843B4
:1027E000C2F20003C3E90001FB681A68FB68DB68FA
:1027F0009A4208D3FB68DB681A684AF2A553C5F60B
:102800005A239A4204D0FB689B79184606F092FA44
:1028100002F0F4FD02E000BF00E000BF07F1100786
:10282000BD4680BD80B582B000AF43F2D813C0F67C
:1028300001037B6040F20003C2F200033B600BE047
:102840007B681A683B681A603B6803F104033B60CD
:102850007B6803F104037B603A6840F6CC13C2F254
:1028600000039A42ECD30B480B494FF00002884218
:10287000B8BF40F8042BFFF6FAAFDFF8200001687C
:1028800041F47001016000F0A1FC07F10807BD46AA
:1028900080BD0000D00900208C7E002088ED00E083
:1028A00080B400AFFEE700BF80B582B000AF40F655
:1028B0007D43C2F200031B78012B08D101F096FF83
:1028C00040F67D43C2F200034FF000021A7040F65A
:1028D0007E43C2F200031B78012B73D1FFF76EFA1F
:1028E00040F67E43C2F200034FF000021A7069E026
:1028F00002F07CFD40F65043C2F200035B7840F6E4
:102900005042C2F200024FEAC303D3183A4603F121
:10291000040393E8030082E8030040F65043C2F248
:1029200000035B7803F1010146F26763C6F2666358
:1029300083FB01234FEA63024FEAE173D21A134685
:102940004FEA83039B18CA1AD2B240F65043C2F230
:1029500000035A7040F65043C2F200031B7803F1A3
:10296000FF33DAB240F65043C2F200031A7002F0AD
:1029700035FD3B7803F1FF33032B25D801A252F834
:1029800023F000BF952900089F290008AD29000801
:10299000B72900087B78184605F098FC15E07A788E
:1029A0007B681046194601F0A9F90EE07B781846BD
:1029B00003F044FE09E07A787B681046194602F07D
:1029C000A7FC02E000BF00E000BF40F65043C2F2A7
:1029D00000031B78002B8BD102F008FD40F650431A
:1029E000C2F200031B78002B06D140F67C43C2F2F2
:1029F00000034FF000021A7002F0F0FC07F1080724
:102A0000BD4680BD80B483B000AF03463960FB7122
:102A100097F90730002B10DA4FF46D43CEF2000324
:102A2000FA7902F00F02A2F104013A68D2B24FEA39
:102A30000212D2B25B181A760DE04FF46143CEF267
:102A4000000397F907103A68D2B24FEA0212D2B2E5
:102A50005B1883F8002307F10C07BD4680BC704764
:102A600080B582B000AF78607A686FF07F439A4299
:102A700002D94FF001031FE04EF21003CEF2000323
:102A80007A6822F07F4202F1FF325A604FF0FF3045
:102A90004FF00F01FFF7B6FF4EF21003CEF2000326
:102AA0004FF000029A604EF21003CEF200034FF096
:102AB00007021A604FF00003184607F10807BD46E9
:102AC00080BD00BF80B485B000AFF860B960134628
:102AD000FB7107F11407BD4680BC704780B590B00C
:102AE00004AF0346FB8042F2A420C0F6010006F0CA
:102AF00027F942F2CC20C0F6010006F021F904F0DB
:102B000085FF42F2E420C0F6010006F019F940F614
:102B10006933C0F60003009341F23513C0F6000399
:102B2000019341F2A913C0F60003029341F2F903A5
:102B3000C0F60003039342F6C520C0F6000045F638
:102B40009541C0F6000145F6B542C0F6000245F6D3
:102B5000D543C0F6000300F063FEFB8807F10802CE
:102B6000104642F2F821C0F601011A4606F0A6FD11
:102B700007F10803184606F0E3F8FB88184600F052
:102B8000ABFE42F20C30C0F6010006F0D9F840F27C
:102B90001800C2F2000001F063F842F23430C0F6CF
:102BA000010006F0CDF848F2442001F003F842F2AB
:102BB0005430C0F6010006F0C3F842F26830C0F6A7
:102BC000010006F0BDF840F2C003C2F200031A682B
:102BD00044F6D353C1F26203A3FB02134FEA9313EB
:102BE0001846FFF73DFF0346002B00D0FEE74EF2EC
:102BF0001003CEF200034EF21002CEF20002126871
:102C000022F001021A604FF00003184607F1300766
:102C1000BD4680BD80B592B000AF786039604FF09E
:102C20000003A7F8463007F10C033B644FF0100097
:102C30004FF002014FF0000242F29433C0F601035C
:102C400003F046FE034687F83F3046E0B7F84630CB
:102C50004FEA43037A68D3181B88DBB243F00103C1
:102C6000DAB23B6C1A703B6C03F101033B64B7F8BA
:102C700046304FEA43037A68D3181B884FEA132380
:102C80009BB2DAB23B6C1A703B6C03F101033B64FC
:102C9000B7F846304FEA43033A68D3181B88DAB2D4
:102CA0003B6C1A703B6C03F101033B64B7F8463090
:102CB0004FEA43033A68D3181B884FEA13239BB2A9
:102CC000DAB23B6C1A703B6C03F101033B64B7F85A
:102CD000463003F10103A7F84630B7F846300B2B16
:102CE000B4D907F10C034FF010004FF030014FF052
:102CF000040203F0EDFD034687F83F3007F10C03B3
:102D000018464FF000014FF0300206F02BFC07F19F
:102D10000C034FF010004FF010014FF0340203F09D
:102D2000D7FD034687F83F3097F83F30184607F144
:102D30004807BD4680BD00BF80B5A0B004AF40F6D7
:102D40006933C0F60003009341F23513C0F6000367
:102D5000019341F2A913C0F60003029341F2F90373
:102D6000C0F60003039342F6C520C0F6000045F606
:102D70009541C0F6000145F6B542C0F6000245F6A1
:102D8000D543C0F6000300F04BFD4FF0000000F00B
:102D9000A3FD4FF4024000F00DFF42F29830C0F660
:102DA000010005F0CDFF07F16803184603F044FE6B
:102DB00097F868301A4697F8693007F10401084619
:102DC00042F2C831C0F6010106F078FC07F10403B5
:102DD000184605F0B5FF42F2E030C0F6010005F0FC
:102DE000AFFF42F21040C0F6010005F0A9FF44F227
:102DF0004020C0F20F00FDF7E7FC4FF00000FEF7A7
:102E00007BF94FF41060C0F23D00FDF7DDFC42F2AB
:102E10004440C0F6010005F093FF4FF00100FFF7BA
:102E20005DFE44F24020C0F20F00FDF7CDFC41F6FC
:102E30005830C2F2000003F0A7FD0346DAB240F2B8
:102E40001503C2F200031A7040F21503C2F2000328
:102E50001B785BB207F10402104642F26041C0F6F3
:102E600001011A4606F02AFC07F10403184605F092
:102E700067FF42F28440C0F6010005F061FF40F2B6
:102E80001403C2F200034FF001021A701FE04FF06A
:102E90000B004FF080014FF0000241F6BC23C2F25C
:102EA000000303F0D7FC0346DAB240F21403C2F287
:102EB00000031A7040F68043C2F200031B7803F14E
:102EC0000103DAB240F68043C2F200031A7040F206
:102ED0001403C2F200031B78002B06D040F6804397
:102EE000C2F200031B78022BD1D940F68043C2F214
:102EF00000034FF003021A7040F68043C2F2000351
:102F00001B78032B05D142F22423C0F60103FB6694
:102F100004E041F6BC23C2F20003FB6642F29C408F
:102F2000C0F6010005F00CFF40F21403C2F20003EA
:102F30004FF001021A700DE040F21C00C2F20000D6
:102F4000A149FFF767FE03461A4640F21403C2F296
:102F500000031A7040F21403C2F200031B78002B26
:102F6000EAD142F2B840C0F6010005F0E9FE00F0F7
:102F70002FFD42F2D040C0F6010005F0E1FE4FF017
:102F80000100FFF7ABFD44F24020C0F20F00FDF757
:102F90001BFC42F2E840C0F6010005F0D1FE40F211
:102FA0001403C2F200034FF001021A700FE04FF059
:102FB0000B004FF080014FF00002FB6E03F088FC25
:102FC0000346DAB240F21403C2F200031A7040F270
:102FD0001403C2F200031B78002BE8D142F20C501C
:102FE000C0F6010005F0ACFE40F21403C2F200038B
:102FF0004FF001021A7040F21503C2F200031B7871
:10300000002B21D141F65833C2F200031B7823F084
:103010000103DAB241F65833C2F200031A700CE031
:1030200041F65830C2F2000003F09AFC03461A46FB
:1030300040F21403C2F200031A7040F21403C2F209
:1030400000031B78002BEBD142F23450C0F6010094
:1030500005F076FE41F65433C2F200034FF0010250
:103060001A7014E040F21003C2F200031B884FF004
:10307000040019464EF65442C0F6000203F098FCD4
:1030800003461A4641F65433C2F200031A7041F661
:103090005433C2F200031B78002BE3D141F65433C2
:1030A000C2F200031B7807F10402104642F25451A9
:1030B000C0F601011A4606F001FB07F104031846A9
:1030C00005F03EFE42F26850C0F6010005F038FE01
:1030D00041F6B823C2F200034FF001021A7014E067
:1030E00040F21203C2F200031B884FF0050019469C
:1030F00040F6E032C0F6010203F05AFC03461A46DD
:1031000041F6B823C2F200031A7041F6B823C2F2A6
:1031100000031B78002BE3D141F6B823C2F2000371
:103120001B7807F10402104642F28851C0F60101F3
:103130001A4606F0C3FA07F10403184605F000FE2C
:1031400042F29C50C0F6010005F0FAFD4FF000007D
:10315000FFF7C4FC42F2B850C0F6010005F0F0FDE4
:1031600044F24020C0F20F00FDF72EFB07F1680388
:10317000184603F061FC97F868301A4697F86930F2
:1031800007F10401084642F2C831C0F6010106F019
:1031900095FA44F24020C0F20F00FDF715FB42F211
:1031A0009830C0F6010005F0CBFD07F10403184686
:1031B00005F0C6FD42F2E030C0F6010005F0C0FDAA
:1031C00007F17007BD4680BD3400002080B58EB089
:1031D00000AF4FF0010387F8373001F08BFD00F0AE
:1031E000A3FAFEF783FFFFF729F905F00DFE01F0C2
:1031F00015F801F0C7F800F0C3FF4FF00A0000F027
:1032000089FF4FF00A0001F05FF902F027F947F259
:103210009400C2F2000002F06DFDFEE780B483B0BE
:1032200000AF0346FB7143F67003C4F202034FF094
:1032300000021A7043F67003C4F202034FF000025A
:103240001A70FB79012B02D0042B08D00FE043F653
:103250007003C4F202034FF001021A7008E043F653
:103260007003C4F202034FF005021A7000E000BFC1
:1032700007F10C07BD4680BC704700BF80B489B021
:1032800000AF78604FF00003BB614FF000037B613B
:103290004FF00003FB614FF002033B614FF000036E
:1032A000FB604FF00203BB604FF46053C4F20203B3
:1032B0009B6803F00C03BB61BB69042B0AD0082B8D
:1032C0000FD0002B60D17A684FF41053C0F2F40392
:1032D000136060E07A684FF41053C0F2F403136097
:1032E00059E04FF46053C4F202035B6803F48003B7
:1032F0004FEA9353FB604FF46053C4F202035B68E0
:1033000003F03F03BB60FB68002B14D04FF4105355
:10331000C0F2F403BA68B3FBF2F24FF46053C4F2A4
:103320000203596847F6C0730B404FEA931303FB3F
:1033300002F3FB6113E04FF41053C0F2F403BA68D8
:10334000B3FBF2F24FF46053C4F20203596847F63C
:10335000C0730B404FEA931303FB02F3FB614FF47E
:103360006053C4F202035B6803F440334FEA134333
:1033700003F101034FEA43033B61FA693B69B2FB86
:10338000F3F27B681A6006E07A684FF41053C0F2DB
:10339000F403136000BF4FF46053C4F202039B6850
:1033A00003F0F003BB61BB694FEA1313BB6140F24A
:1033B0004C03C2F20003BA699B181B78DBB27B6135
:1033C0007B681A687B6922FA03F27B685A604FF4C3
:1033D0006053C4F202039B6803F4E053BB61BB6912
:1033E0004FEA9323BB6140F24C03C2F20003BA6977
:1033F0009B181B78DBB27B617B685A687B6922FA79
:1034000003F27B689A604FF46053C4F202039B6836
:1034100003F46043BB61BB694FEA5333BB6140F2C5
:103420004C03C2F20003BA699B181B78DBB27B61C4
:103430007B685A687B6922FA03F27B68DA6007F1DD
:103440002407BD4680BC704780B485B000AF78606B
:103450004FF00003FB607B6803F44073B3F5407FDB
:1034600017D14FF46053C4F202039B68FB60FB6802
:1034700023F4F813FB607B6823F0704323F440735C
:10348000FA681343FB604FF46053C4F20203FA6816
:103490009A604FF46053C4F202034FF46052C4F2D6
:1034A0000202116F7A684FEA02524FEA12520A433F
:1034B0001A6707F11407BD4680BC704780B483B01B
:1034C00000AF0346FB7140F63C63C4F24723FA7930
:1034D0001A6007F10C07BD4680BC704780B483B00A
:1034E00000AF78600B46FB70FB78002B0CD04FF4DC
:1034F0006053C4F202034FF46052C4F20202116B33
:103500007A680A431A630DE04FF46053C4F2020371
:103510004FF46052C4F20202116B7A686FEA020241
:103520000A401A6307F10C07BD4680BC704700BF14
:1035300080B483B000AF78600B46FB70FB78002B43
:103540000CD04FF46053C4F202034FF46052C4F243
:103550000202116C7A680A431A640DE04FF460535A
:10356000C4F202034FF46052C4F20202116C7A6892
:103570006FEA02020A401A6407F10C07BD4680BCDC
:10358000704700BF80B483B000AF78600B46FB701B
:10359000FB78002B0CD04FF46053C4F202034FF4BD
:1035A0006052C4F20202516C7A680A435A640DE018
:1035B0004FF46053C4F202034FF46052C4F20202AB
:1035C000516C7A686FEA02020A405A6407F10C07EC
:1035D000BD4680BC704700BF80B487B000AF0346D3
:1035E000FB714FF00003FB604FF000037B614FF075
:1035F0000003FB74FB794FEA5313DBB2FB60FB68FB
:10360000012B06D14FF46053C4F202031B687B61A7
:103610000FE0FB68022B06D14FF46053C4F20203A3
:103620001B6F7B6105E04FF46053C4F202035B6FD4
:103630007B61FB7903F01F03FB60FB687A6922FA68
:1036400003F303F00103002B03D04FF00103FB74DD
:1036500002E04FF00003FB74FB7C184607F11C07E7
:10366000BD4680BC704700BF80B483B000AF034646
:103670003960FB7197F90730002B10DA4FF46D4376
:10368000CEF20003FA7902F00F02A2F104013A68C7
:10369000D2B24FEA0212D2B25B181A760DE04FF4A2
:1036A0006143CEF2000397F907103A68D2B24FEAAD
:1036B0000212D2B25B1883F8002307F10C07BD4653
:1036C00080BC704780B582B000AF78607A686FF0D8
:1036D0007F439A4202D94FF001031FE04EF21003DC
:1036E000CEF200037A6822F07F4202F1FF325A6084
:1036F0004FF0FF304FF00F01FFF7B6FF4EF210030F
:10370000CEF200034FF000029A604EF21003CEF2A8
:1037100000034FF007021A604FF00003184607F14C
:103720000807BD4680BD00BF80B500AF40F2C003B2
:10373000C2F200031A6848F21F53C5F2EB13A3FB51
:1037400002134FEA53131846FFF7BCFF0346002B42
:1037500000D0FEE780BD00BF80B487B000AF7860C6
:103760000B467B804FF00003FB754FF000033B617D
:103770004FF00003FB607B884FEA13239BB23B6151
:103780007B685A687B88DBB24FF0010101FA03F3D2
:103790001340FB607B681A683B691340002B06D01E
:1037A000FB68002B03D04FF00103FB7502E04FF0E4
:1037B0000003FB75FB7D184607F11C07BD4680BC66
:1037C000704700BF80B584B000AF0346FB8041F670
:1037D000E033C2F200039B68FB60FB6803F109035E
:1037E000BB60FB88002B0CBF00230123DBB21A4611
:1037F000BB681A70BB6803F10103BB604FF48040E3
:10380000F9684FF00102FDF7A9FD4FF480404FF039
:10381000000103F0E5FF07F11007BD4680BD00BFC2
:1038200080B485B000AFF860B9607A603B6041F663
:10383000E033C2F20003BA68DA6041F6E033C2F264
:1038400000037A681A6141F6E033C2F200033A6875
:103850005A6141F6E033C2F20003BA69DA6141F617
:10386000E033C2F20003FA691A6241F6E033C2F2B1
:1038700000033A6A5A6241F6E033C2F200037A6A00
:103880009A6241F6E033C2F20003FA689A6141F6A7
:10389000E033C2F200034FF0010283F8402007F149
:1038A0001407BD4680BC704780B582B000AF786019
:1038B00041F6E033C2F200034FF001025A8041F6B4
:1038C000E033C2F200037A685A6003F089FE07F120
:1038D0000807BD4680BD00BF80B582B000AF03467B
:1038E000FB8041F6E033C2F200034FF000029A631E
:1038F00041F6E033C2F200034FF00002DA6341F612
:10390000E033C2F200034FF000021A8041F6E033C8
:10391000C2F200034FF000021A8641F6E033C2F211
:1039200000034FF000025A8641F6E033C2F2000372
:103930004FF000029A8641F6E033C2F200034FF0E6
:103940000002DA8641F6E033C2F200034FF00002D3
:10395000DA6241F6E033C2F200034FF000025A800F
:1039600041F6E033C2F200034FF000025A6041F624
:10397000E033C2F2000340F67062C2F200029A60C5
:1039800043F6A900C0F60000FDF79CFAFB88184634
:10399000FFF718FF41F6E033C2F200039B6844F2E0
:1039A0000B0019464FF00002FDF7D8FC44F20B0063
:1039B0004FF0000103F014FF40F6D253C2F20003AF
:1039C0004FF001021A7007F10807BD4680BD00BF25
:1039D00080B500AF41F6E033C2F200039B6A4FF0BE
:1039E0000000984700BF41F6E033C2F20003DB69F4
:1039F00098470346002BF6D041F6E033C2F20003AD
:103A00009B68002B06D041F6E033C2F200034FF072
:103A100000029A60FDF78AFA40F6D253C2F2000320
:103A20004FF000021A7080BD80B588B000AFF8601A
:103A3000B9607A604FF0FF337B6141F6E033C2F248
:103A400000039B68FB61FB6903F10903BB61B86973
:103A5000F968FEF759FCB861B869B968FEF754FC1B
:103A6000B861B8697968FEF74FFCB8614FF004009F
:103A7000F9694FF00C02FDF771FC07F114034FF0E8
:103A80000400194603F0ACFE7B69184607F12007D5
:103A9000BD4680BD80B584B000AF7860396041F626
:103AA000E033C2F200039B68FB60FB6803F109038B
:103AB000BB60B8687968FEF727FCB8604FF0070074
:103AC000F9684FF00402FDF749FC4FF00700396830
:103AD00003F086FE4FF00003184607F11007BD46BD
:103AE00080BD00BF90B589B000AFF860B9607A6062
:103AF0003B6041F6E033C2F200039B68BB61BB69E7
:103B000003F10903FB61F8694FF02401FEF7FCFBA8
:103B1000F861F869F968FEF7F7FBF861F869B968C8
:103B2000FEF7F2FBF861F8697968FEF7EDFBF861E2
:103B3000F8693968FEF7E8FBF861F869396BFEF758
:103B4000E3FBF8617B6BF8691946FEF7DDFBF86172
:103B5000F869B96BFEF7D8FBF861F869F96BFEF705
:103B6000D3FBF8614FF000040DE023B23A6CD31898
:103B70001A78FB691A70FB6903F10103FB612346A4
:103B800003F101039CB2A3B23F2BEED94FF0030027
:103B9000B9694FF06402FDF7E1FB07F114034FF040
:103BA0000300194603F01CFE7B69184607F1240741
:103BB000BD4690BD80B586B000AF78607A6848F2A7
:103BC0000803134048F2080293421AD141F6E03349
:103BD000C2F200034FF0000283F840207A6848F2F6
:103BE00008039A4202D14FF0000333E07B6823F4CC
:103BF000004323F008037B607B6843F400437B6051
:103C000007E041F6E033C2F200034FF0010283F80F
:103C100040204FF0FF33FB6041F6E033C2F2000377
:103C20009B687B617B6903F109033B6138697968B3
:103C3000FEF76AFB38614FF0080079694FF0040223
:103C4000FDF78CFB07F10C034FF00800194603F059
:103C5000C7FDFB68184607F11807BD4680BD00BFC9
:103C600090B587B000AF78604FF0FF33FB6041F64E
:103C7000E033C2F200039B683B613B6903F1090337
:103C80007B617B68002B01D1FB6832E07B684FF0E1
:103C900054021A707B6803F101034FF054021A704A
:103CA0007B6803F102034FF054021A704FF00004D6
:103CB0000DE023B27A68D3181A787B691A707B6991
:103CC00003F101037B61234603F101039CB223B29C
:103CD000022BEEDD4FF00C0039694FF00302FDF7C7
:103CE0003DFB07F10C034FF00C00194603F078FD83
:103CF000FB68184607F11C07BD4690BD80B584B02F
:103D000000AF03463960FB71FB79132B02D94FF0EA
:103D1000010335E0FB794FEA031240F68843C2F213
:103D20000003D318FB60FB685B7903F00F03DBB281
:103D3000022B02D04FF0010322E0FB68DB88002B4E
:103D40001CD140F6D113C2F200031B78DBB203F1A1
:103D50000103DAB240F6D113C2F200031A70FB6815
:103D60003A681A60FB684FF00102DA80F86800F0E8
:103D70009DFDFDF755FC4FF0000301E04FF00703F8
:103D8000184607F11007BD4680BD00BF80B483B060
:103D900000AF78607A6813464FEA43039B184FEAF6
:103DA00083037B6000E000BF7B68002B0CBF002317
:103DB0000123DBB27A6802F1FF327A60002BF2D184
:103DC00007F10C07BD4680BC704700BF80B582B0CC
:103DD00000AF4FF040033B604FF000033B714FF0EA
:103DE00003037B714FF00003BB714FF00203FB71C3
:103DF0003B464FF00000C4F20200194600F01AFEE4
:103E00004FF48060C4F202004FF4805100F0FEFED7
:103E100000BF4FF00000C4F202004FF0400100F07C
:103E2000C9FE0346002BF4D14FF040033B604FF036
:103E300002033B714FF00003BB714FF001037B7134
:103E40004FF00003FB713B464FF00000C4F202004C
:103E5000194600F0EFFD4FF00000C4F202004FF0F1
:103E600006014FF0050200F0F1FE07F10807BD461C
:103E700080BD00BF80B485B000AF0346FB7100BFBA
:103E80004FF44053C4F201031B899BB203F080033B
:103E9000002BF5D14FF44053C4F20103FA7992B2EA
:103EA0009A8100BF4FF44053C4F201031B899BB2B7
:103EB00003F00203002BF5D000BF4FF44053C4F2CF
:103EC00001031B899BB203F00103002BF5D04FF4D3
:103ED0004053C4F201039B899BB2FB73FB7B1846E2
:103EE00007F11407BD4680BC704700BF80B582B0A3
:103EF00000AF02460B46FA71BB71FFF767FFFB7913
:103F00001846FFF7B7FFBB791846FFF7B3FF4FF42A
:103F10008060C4F202004FF4805100F069FE07F1A6
:103F20000807BD4680BD00BF80B584B000AF034622
:103F3000FB71FFF74BFFFB7963F07F03DBB21846A1
:103F4000FFF798FF4FF00000FFF794FF0346FB7365
:103F50004FF48060C4F202004FF4805100F048FE3C
:103F6000FB7B184607F11007BD4680BD80B582B0C7
:103F700000AF0346FB71FFF729FFFB791846FFF7F7
:103F800079FF4FF48060C4F202004FF4805100F0DA
:103F90002FFE07F10807BD4680BD00BF80B584B085
:103FA00000AF396013460246FA71BB71FFF70EFF8E
:103FB000FB7943F04003DBB21846FFF75BFF4FF09D
:103FC0000003FB730AE0FB7B3A68D3181B781846A2
:103FD000FFF750FFFB7B03F10103FB73FA7BBB7917
:103FE0009A42F0D34FF48060C4F202004FF4805143
:103FF00000F0FEFD07F11007BD4680BD90B585B00D
:1040000000AF396013460246FA71BB71FFF7DEFE5E
:10401000FB7963F03F03DBB21846FFF72BFF4FF04D
:104020000003FB730CE0FB7B3A68D4184FF00000F0
:10403000FFF720FF03462370FB7B03F10103FB73B3
:10404000FA7BBB799A42EED34FF48060C4F202004F
:104050004FF4805100F0CCFD07F11407BD4690BD30
:1040600080B584B000AF0346FB71FFF7AFFEFB796C
:1040700063F03F03DBB21846FFF7FCFE4FF0000091
:10408000FFF7F8FE0346FB734FF48060C4F20200B2
:104090004FF4805100F0ACFDFB7B184607F1100790
:1040A000BD4680BD80B500AFFFF790FE4FF03000F9
:1040B000FFF7E0FEFFF78AFE4FF48060C4F20200D3
:1040C0004FF4805100F094FD80BD00BF80B500AF7B
:1040D0004FF48060C4F202004FF4805100F088FD7C
:1040E00000BF4FF48060C4F202004FF4805100F032
:1040F0008DFD00BF4FF48060C4F202004FF4805188
:1041000000F076FD4FF02D00FFF740FEFFF7CAFFED
:1041100080BD00BF80B582B000AF0346FB714FF099
:104120003600FFF723FFFA7940F27403C2F200036E
:104130009B5C4FF00D001946FFF7D8FEFA7940F26C
:104140008003C2F200039B5C4FF00E001946FFF79C
:10415000CDFEFA7940F28C03C2F200039B5C4FF073
:104160000F001946FFF7C2FE4FF03400FFF7FEFEC6
:104170004FF03300FFF7FAFE07F10807BD4680BD98
:1041800080B500AF00F04AF822484FF000014FF030
:10419000FD0205F0E7F920484FF000014FF0FD0265
:1041A00005F0E0F9FFF792FF4FF0000040F29801B0
:1041B000C2F200014FF02702FFF7F0FE40F25D036C
:1041C000C2F200031B781A4640F26003C2F20003F9
:1041D0009B5C4FF03E001946FFF788FE41F67443A2
:1041E000C2F200034FF0000283F8402041F674430E
:1041F000C2F200034FF0000283F8412000F0C2F841
:104200004FF03400FFF7B2FE4FF07800FFF7BEFD2D
:1042100080BD00BF371C0020771C002080B588B00F
:1042200000AF4FF002004FF00101FFF757F907F11F
:104230001803184600F0A0FC4FF48053BB614FF008
:1042400001033B774FF003037B774FF00003BB770D
:104250004FF00103FB7707F118034FF48060C4F2BD
:104260000200194600F0E6FB4FF48060C4F2020041
:104270004FF4805100F0BCFC4FF480504FF000012F
:10428000FFF780F94FF001004FF00001FFF726F92A
:104290004FF480504FF00101FFF774F94FF0010027
:1042A0004FF00101FFF71AF907F11803184600F063
:1042B00063FC4FF0E003BB614FF002033B774FF02C
:1042C0000003BB774FF001037B774FF00003FB77D0
:1042D00007F118034FF00000C4F20200194600F085
:1042E000A9FB4FF00000C4F202004FF005014FF0AF
:1042F000050200F0ABFC4FF00000C4F202004FF0EA
:1043000006014FF0050200F0A1FC4FF00000C4F2DE
:1043100002004FF007014FF0050200F097FC07F193
:104320000403184603F0CEFA4FF00003BB804FF4AD
:104330008273FB804FF000033B814FF000037B81D1
:104340004FF00003BB814FF44073FB814FF0180323
:104350003B824FF000037B8207F104034FF440508F
:10436000C4F20100194603F069FA4FF44050C4F258
:1043700001004FF0010103F0D3FA07F12007BD4619
:1043800080BD00BF80B586B000AF4FF004004FF095
:104390000101FFF7A3F807F11003184600F0ECFB4A
:1043A0004FF030033B614FF000033B754FF00303C8
:1043B0007B754FF00003BB754FF00203FB7507F1EF
:1043C00010034FF40060C4F20200194600F032FB03
:1043D0004FF480404FF00101FFF7D4F807F11003CC
:1043E000184600F0C9FB4FF020033B614FF000037B
:1043F0003B754FF003037B754FF00103FB754FF0E6
:104400000003BB7507F110034FF40060C4F2020013
:10441000194600F00FFB4FF002004FF00501FCF7CA
:1044200041F94FF02003BB604FF00103BB734FF025
:1044300000033B734FF00C037B7307F1080318462E
:1044400003F0EAFD4FF017033B714FF00F037B7150
:104450004FF00F03BB714FF00103FB7107F1040331
:10446000184603F0C1FE07F11807BD4680BD00BF26
:1044700080B582B000AF00F047F80346FB71FB79CE
:10448000002B09D04FF0200003F09EFE4FF02000DB
:1044900003F05EFE00F09CF84FF03600FFF766FD7B
:1044A0004FF03A00FFF762FD4FF03400FFF75EFD7A
:1044B0004FF0200003F088FE4FF0200003F048FE8C
:1044C00007F10807BD4680BD80B582B000AF034646
:1044D000FB71FB79002B12D04FF03600FFF746FD41
:1044E000FB794FF009001946FFF700FD4FF034004B
:1044F000FFF73CFD4FF07800FFF748FC00E000BFFD
:1045000007F10807BD4680BD80B582B000AF4FF00F
:104510000003FB714FF03B00FFF7A2FD034603F0E1
:104520007F03002B4AD04FF03F00FFF7FDFC03460E
:10453000FB7141F67443C2F20003FA791A70FB79F9
:104540004FF03F0021491A46FFF758FD07F10403D9
:104550004FF03F0019464FF00202FFF74FFD3A7946
:1045600041F67443C2F2000383F840207B794FEA9E
:10457000D313DAB241F67443C2F2000383F8412048
:1045800041F67443C2F20003DB78DAB241F67443B9
:10459000C2F200035A7041F67443C2F200031B7961
:1045A000DAB241F67443C2F200039A7041F67443E2
:1045B000C2F2000393F84130DBB201E04FF0000398
:1045C000184607F10807BD4680BD00BF771C0020D4
:1045D00080B594B000AF42F24462C0F6010207F128
:1045E000040312681146198003F102034FEA1242D4
:1045F0001A7041F67443C2F200039B78DBB207F1F4
:104600000802104642F2EC51C0F601011A4605F0CC
:1046100055F807F10803184604F0C4FB41F674434B
:10462000C2F200035B78DBB207F10802104642F2E7
:104630000061C0F601011A4605F040F807F10803D1
:10464000184604F0AFFB41F67443C2F2000393F83E
:104650004030DBB207F10802104642F21461C0F6A6
:1046600001011A4605F02AF807F10803184604F07C
:1046700099FB41F67443C2F200031B78DBB207F1E9
:104680000802104642F22061C0F601011A4605F008
:1046900015F807F10803184604F084FB07F104033A
:1046A000184604F07FFB42F23460C0F6010004F0CB
:1046B00079FB4FF00003FB6412E0FB6C03F1020294
:1046C00041F67443C2F200039B18DB78DAB207F1BB
:1046D0000801FB6CCB181A70FB6C03F10103FB643F
:1046E00041F67443C2F200031B78DBB2A3F102036C
:1046F0001A46FB6C9A42E0D807F10802FB6CD3180B
:104700004FF030021A7007F10803184604F04AFB14
:1047100007F10403184604F045FB07F15007BD46B6
:1047200080BD00BF80B483B000AF78607B689B6AB7
:10473000002B0BD17B685B6A002B07D140F68443CA
:10474000C2F200034FF000021A6046E07B689B6AE9
:10475000002B19D17B685A6A40F68443C2F20003E9
:104760001A607B685B6A7A68526A116A7A68126AB0
:104770008A181A627B685B6A4FF000029A627B6853
:104780004FF000025A6228E07B685B6A002B09D177
:104790007B689B6A4FF000025A627B684FF0000210
:1047A0009A621AE07B689B6A7A68526A5A627B68EE
:1047B0005B6A7A68926A9A627B685B6A7A68526A14
:1047C000116A7A68126A8A181A627B684FF00002CE
:1047D0005A627B684FF000029A627B684FF0FF32AA
:1047E0001A6207F10C07BD4680BC704780B582B0E5
:1047F00000AF40F68443C2F200031B687B602EE0EA
:104800007B681B7AFF2B02D0786800F0BDF87B68CC
:10481000DB69002B04D07B68DB69184601F0C8FF18
:104820007B684FF0FF321A627B685A6A40F6844315
:10483000C2F200031A607B684FF000025A62786887
:10484000FDF73CFE40F68443C2F200031B687B6028
:104850007B68002B03D07B684FF000029A627B6874
:10486000002B03D07B681B6A002BC9D007F1080717
:10487000BD4680BD80B500AF40F6D113C2F2000343
:104880001B78DBB2012B0ED940F67C43C2F2000349
:104890004FF001021A7040F67D43C2F200034FF060
:1048A00001021A7001E0FFF7A1FF80BD80B584B05E
:1048B00000AF78607B68DB68FB60FB68002B5DD035
:1048C000FB685A697B68DA607B68DB68002B04D080
:1048D0007B68DB684FF000029A61FB684FF00002D2
:1048E0005A61FB684FF0FF021A72FB681B6AB3F152
:1048F000FF3F02D0F868FFF715FF7B685B7903F094
:104900000F03DBB2022B08D17B681A68FB681A61BF
:104910007B684FF000021A601FE07B685B7903F050
:104920000F03DBB2032B0DD17B681B68BB60BB6838
:104930001A68BB68DB884FEA8303D3181A68FB68E0
:104940001A610AE07B685B7903F00F03DBB2012B8D
:1049500003D1FB684FF0FF321A6140F64443C2F2C4
:1049600000031B68FA689A4204D1FB684FF0010209
:104970005A7104E0F868FDF7A1FD00E000BF07F1FF
:104980001007BD4680BD00BF80B485B000AF786021
:104990007B681B7A4FEA031240F68843C2F2000399
:1049A000D318FB607B685B69002B08D17B689B692F
:1049B000002B04D1FB684FF00002DA6031E07B6825
:1049C0009B69002B0DD17B685B694FF000029A61F7
:1049D0007B685A69FB68DA607B684FF000025A61B5
:1049E0001FE07B685B69002B09D17B689B694FF0F6
:1049F00000025A617B684FF000029A6111E07B6807
:104A00009B697A6852695A617B685B697A689269C6
:104A10009A617B684FF000029A617B684FF0000258
:104A20005A617B684FF0FF021A7207F11407BD4606
:104A300080BC704780B487B000AF786039604FF0B9
:104A400000037B614FF000033B614FF00003FB600C
:104A50004FF000037B6186E07B694FF0010202FAB0
:104A600003F33B613B681A683B691340FB60FA68DB
:104A70003B699A4273D17B681A687B694FEA4303AA
:104A80004FF0030101FA03F36FEA03031A407B6856
:104A90001A607B681A683B681B7919467B694FEA84
:104AA000430301FA03F31A437B681A603B681B79DE
:104AB000012B03D03B681B79022B34D17B689A68A9
:104AC0007B694FEA43034FF0030101FA03F36FEAF6
:104AD00003031A407B689A607B689A683B685B793D
:104AE00019467B694FEA430301FA03F31A437B68D3
:104AF0009A607B685A687B699BB24FF0010101FAAA
:104B000003F36FEA03031A407B685A607B685A68B4
:104B10003B689B7919467B699BB201FA03F39BB210
:104B20001A437B685A607B68DA687B699BB24FEAFC
:104B300043034FF0030101FA03F36FEA03031A4042
:104B40007B68DA607B68DA683B68DB7919467B69E9
:104B50004FEA430301FA03F31A437B68DA607B6987
:104B600003F101037B617B690F2B7FF675AF07F1C2
:104B70001C07BD4680BC704780B483B000AF78602E
:104B80007B684FF6FF721A607B684FF000021A7163
:104B90007B684FF000025A717B684FF000029A71F7
:104BA0007B684FF00002DA7107F10C07BD4680BC4C
:104BB000704700BF80B485B000AF78600B467B8043
:104BC0004FF00003FB737B681A697B881340002B4E
:104BD00003D04FF00103FB7302E04FF00003FB73BF
:104BE000FB7B184607F11407BD4680BC704700BF29
:104BF00080B483B000AF78600B467B807B687A8896
:104C00001A8307F10C07BD4680BC704780B483B09F
:104C100000AF78600B467B807B687A885A8307F107
:104C20000C07BD4680BC704780B483B000AF78608D
:104C30000B467B807B685A697B885A407B685A6147
:104C400007F10C07BD4680BC704700BF80B485B03B
:104C500000AF786013460A467A807B704FF00003FD
:104C6000FB604FF00003BB607A787B8803F007039A
:104C70004FEA830302FA03F3FB607B884FEAD30316
:104C80009BB21A467B884FEAD3039BB219467B68D6
:104C900001F1080153F821107B8803F007034FEA64
:104CA00083034FF00F0000FA03F36FEA0303194088
:104CB0007B6802F1080243F822107B884FEAD30395
:104CC0009BB21A467B6802F1080253F82220FB6867
:104CD0001343BB607B884FEAD3039BB21A467B68C1
:104CE00002F10802B96843F8221007F11407BD4623
:104CF00080BC704780B500AF4FF46D43CEF2000327
:104D00004FF46D42CEF20002D2F8882042F47002D5
:104D1000C3F888204FF46053C4F202034FF460528A
:104D2000C4F20202126842F001021A604FF46053AA
:104D3000C4F202034FF000029A604FF46053C4F2D1
:104D400002034FF46052C4F20202126822F084722D
:104D500022F480321A604FF46053C4F2020343F22B
:104D60001002C2F200425A604FF46053C4F20203D0
:104D70004FF46052C4F20202126822F480221A60D8
:104D80004FF46053C4F202034FF00002DA6000F007
:104D900009F84FF46D43CEF200034FF000629A60C1
:104DA00080BD00BF80B483B000AF4FF000037B60D4
:104DB0004FF000033B604FF46053C4F202034FF422
:104DC0006052C4F20202126842F480321A604FF458
:104DD0006053C4F202031B6803F400333B607B683A
:104DE00003F101037B603B68002B03D17B68B3F5C3
:104DF000A06FECD14FF46053C4F202031B6803F4BC
:104E00000033002B03D04FF001033B6002E04FF072
:104E100000033B603B68012B40F082804FF46053FD
:104E2000C4F202034FF46052C4F20202126C42F068
:104E300080521A644FF4E043C4F200034FF4E0429E
:104E4000C4F20002126842F480421A604FF46053C8
:104E5000C4F202034FF46052C4F2020292689A60F4
:104E60004FF46053C4F202034FF46052C4F20202E2
:104E7000926842F400429A604FF46053C4F2020315
:104E80004FF46052C4F20202926842F4A0529A6057
:104E90004FF46053C4F2020345F21042C0F2407274
:104EA0005A604FF46053C4F202034FF46052C4F2EC
:104EB0000202126842F080721A6000BF4FF4605321
:104EC000C4F202031B6803F00073002BF6D04FF40A
:104ED0007053C4F2020340F205621A604FF460534B
:104EE000C4F202034FF46052C4F20202926822F04C
:104EF00003029A604FF46053C4F202034FF460520D
:104F0000C4F20202926842F002029A6000BF4FF4BB
:104F10006053C4F202039B6803F00C03082BF6D124
:104F20004FF46053C4F202034FF46052C4F2020221
:104F3000926822F400029A604FF46053C4F20203B4
:104F40004FF44052C2F20002C3F884204FF4605381
:104F5000C4F202034FF46052C4F20202126842F03B
:104F600080621A6000BF4FF46053C4F202031B68F2
:104F700003F00063002BF6D007F10C07BD4680BCA0
:104F8000704700BF80B485B000AF786040F6CC5366
:104F9000C2F200031B68002B08D140F6CC53C2F2CA
:104FA000000347F68C62C2F200021A6040F6CC534E
:104FB000C2F200031B68FB6040F6CC53C2F2000350
:104FC0001A687B68D21840F6CC53C2F200031A600C
:104FD000FB68184607F11407BD4680BC704700BF48
:104FE00080B485B000AF786039604FF00003FB609B
:104FF0007B681B68FB60FA6848F23F03CFF21C0332
:105000001340FB603B681A683B68DB681A433B68E7
:105010005B691A433B689B691A433B68DB691A4327
:105020003B681B6A1A433B685B6A1A433B689B6A8E
:105030001A433B685B6B1A433B689B6B1343FA68EC
:105040001343FB607B68FA681A607B685B69FB60EE
:10505000FB6823F00703FB603B68DA6A3B681B6B65
:105060001343FA681343FB607B68FA685A613B6834
:105070001A697B685A603B685A687B689A603B682B
:105080009A687B68DA6007F11407BD4680BC7047F8
:1050900080B483B000AF78607B684FF000021A6084
:1050A0007B684FF000025A607B684FF000029A6004
:1050B0007B684FF00002DA607B684FF000021A61F3
:1050C0007B684FF000025A617B684FF000029A61E2
:1050D0007B684FF00002DA617B684FF000021A62D1
:1050E0007B684FF000025A627B684FF000029A62C0
:1050F0007B684FF00002DA627B684FF000021A63AF
:105100007B684FF000025A637B684FF000029A639D
:1051100007F10C07BD4680BC704700BF80B483B068
:1051200000AF78600B46FB70FB78002B06D07B68E5
:105130001B6843F001027B681A6005E07B681B680E
:1051400023F001027B681A6007F10C07BD4680BCA2
:10515000704700BF80B483B000AF78600B467B809F
:105160007A887B685A6007F10C07BD4680BC70479F
:1051700080B483B000AF78607B685B689BB21846F0
:1051800007F10C07BD4680BC704700BF80B485B0F6
:1051900000AFF860B9607A607B68002B03D0FB68D1
:1051A000BA681A6102E0FB68BA68DA6007F11407AE
:1051B000BD4680BC704700BF80B487B000AF786048
:1051C00039604FF00003FB754FF00003FB607A6815
:1051D00046F20F43C4F202039A4205D84FF4C0438B
:1051E000C4F202033B6104E04FF4C843C4F202037B
:1051F0003B613B6803F00053002B03D03B695B68C5
:10520000FB6002E03B691B68FB60FB6823F0F02356
:1052100023F08213FB60FA683B681340002B03D035
:105220004FF00103FB7502E04FF00003FB75FB7DBF
:10523000184607F11C07BD4680BC704780B485B096
:1052400000AF786039607A6846F20F43C4F2020317
:105250009A4205D84FF4C043C4F20203FB6004E055
:105260004FF4C843C4F20203FB603B6803F00053F1
:10527000002B07D03B6823F0F02323F08213FA6859
:10528000D36006E03B6823F0F02323F08213FA6832
:10529000936007F11407BD4680BC704780B485B0A9
:1052A00000AFF860B9601346FB71BB6803F0800380
:1052B000002B0FD0FB79002B06D0FB685B6943F015
:1052C0008002FB685A6105E0FB685B6923F080029D
:1052D000FB685A61BB68802B15D0FB79002B08D086
:1052E000FB681A68BB6803F01E031A43FB681A6068
:1052F00009E0FB681A68BB6803F01E036FEA03034A
:105300001A40FB681A6007F11407BD4680BC70475D
:1053100080B584B000AF03463960FB71FB79132B75
:1053200002D94FF0010354E0FB794FEA031240F633
:105330008843C2F20003D318FB60FB685B7903F07B
:105340000F03DBB2032B02D04FF0010341E0FB68F7
:105350001B68BB60BB689A89BB685B899A4202D1B3
:105360004FF0080335E040F6D113C2F200031B787A
:10537000DBB203F10103DAB240F6D113C2F200034B
:105380001A70BB681A68BB681B894FEA8303D3187D
:105390003A681A60BB681B8903F101039AB2BB68C3
:1053A0001A81BB689B8903F101039AB2BB689A8199
:1053B000BB681A89BB685B899A4203D1BB684FF00E
:1053C00000021A81F868FFF771FAFCF729F94FF02B
:1053D0000003184607F11007BD4680BD80B400AF3A
:1053E00062B600BFBD4680BC704700BF80B400AF4E
:1053F00072B600BFBD4680BC704700BF024B1B6841
:10540000024A116819607047D4000020D8000020BB
:105410000E4B19680E4A1268914200F00F80EFF3AC
:10542000098020E9F00F20ED108A08601A601068EA
:10543000B0EC108AB0E8F00F80F30988054B00202B
:1054400018704EF0040EDFF810E07047440C002096
:10545000400C0020D1090020EDFFFFFF80B594B083
:1054600004AF4FF00003FB8742F69C70C2F20000CD
:105470004FF000014FF0400204F074F84FF00003C9
:10548000FB8739E0FA8F42F6DC43C2F200034FF0AB
:10549000630143F82210FB8F4FEAC32245F26C03ED
:1054A000C2F20003D31818464FF000014FF4006217
:1054B00004F058F8FB8F4FEAC32243F25403C2F2C0
:1054C0000003D31818464FF000014FF4006204F0B7
:1054D00049F8FB8F4FEA031242F6F043C2F2000391
:1054E000D31818464FF000014FF0100204F03AF8BC
:1054F000FB8F03F10103FB87FB8F032BC2D942F221
:105500006C60C0F6010003F01BFC40F66933C0F686
:105510000003009341F23513C0F60003019341F2FA
:10552000A913C0F60003029341F2F903C0F6000389
:10553000039345F22160C0F6000045F69541C0F6A0
:10554000000145F6B542C0F6000245F6D543C0F667
:105550000003FEF765F94FF00000FEF7BDF942F2D7
:105560007860C0F6010003F0EBFB3B46184601F003
:1055700063FA3B781A467B7807F11401084642F239
:10558000A861C0F6010104F099F807F11403184668
:1055900003F0D6FB42F2C060C0F6010003F0D0FB7E
:1055A0007B78192B09D8FEF713FAFDF7C5FB44F6F3
:1055B0004030C0F24C00FBF707F94FF40240FEF711
:1055C000F9FA4FF000004FF000014FF00002FEF733
:1055D0002BFA00F005F807F14007BD4680BD00BF7B
:1055E00080B500AF40F6D253C2F200031B78002B07
:1055F0000CD042F2F060C0F6010003F0A1FBFEF710
:10560000E7F94FF00000FEF767F903E04FF0000004
:10561000FEF762F94FF40240FEF7CCFA80BD00BFFE
:1056200080B5C4B000AF07F10C03186007F10803A0
:10563000196007F107031A7007F10C031B6841F2A8
:105640000902934200F0458141F2090293426EDC67
:1056500040F20722934200F09E8140F207229342DB
:105660002EDC992B00F01183992B0FDC012B00F01D
:10567000DC80012B03DC002B00F0D080F3E2022B56
:1056800000F0DA80052B00F0DE80ECE240F202222E
:10569000934200F0798140F20222934205DC40F20D
:1056A0000122934200F06981DDE240F2032293423D
:1056B00000F0558140F20522934200F05781D2E27A
:1056C00041F20402934200F0D38041F2040293427B
:1056D00018DC41F20102934200F0BC8041F2010269
:1056E000934204DCB3F5805F00F01D81BBE241F220
:1056F0000202934200F0B58041F20302934200F0AF
:10570000FD80B0E241F20602934200F0BF8041F218
:1057100006029342C0F2B38041F20702934200F0C6
:10572000BC8041F20802934200F0BE809BE248F246
:105730000102934200F04B8148F20102934233DCB4
:1057400041F20F02934200F0E78041F20F029342D0
:1057500014DC41F20B02934200F0AD8041F20B02E7
:105760009342C0F2BD8041F20D02934200F0AA8044
:1057700041F20E02934200F0C88074E2B3F5804F0C
:1057800000F0D880B3F5804F05DC41F2100293425F
:1057900000F0AD8067E2B3F5824F00F0D980B3F539
:1057A000004F00F0CE805EE248F24002934200F0EB
:1057B000348248F24002934219DC48F204029342D8
:1057C00000F01D8248F20402934205DC48F2020216
:1057D000934200F0128146E248F20802934200F040
:1057E000158248F21002934200F036813BE2B3F595
:1057F000024F00F01982B3F5024F05DC48F2800237
:10580000934200F0D6802EE2B3F5084F00F01382E9
:105810004FF6FF72934200F0C58024E242F200701E
:10582000C0F6010003F08CFA30E242F21870C0F6C4
:10583000010003F085FA29E242F23070C0F601005F
:1058400003F07EFA22E242F24C70C0F6010003F04F
:1058500077FA1BE242F27070C0F6010003F070FAB2
:1058600014E242F28470C0F6010003F069FA0DE21E
:1058700042F29470C0F6010003F062FA06E242F2CE
:10588000A470C0F6010003F05BFAFFE142F2B870C9
:10589000C0F6010003F054FAF8E142F2CC70C0F611
:1058A000010003F04DFAF1E142F2E070C0F60100B0
:1058B00003F046FAEAE142F2F470C0F6010003F0A8
:1058C0003FFAE3E142F60C00C0F6010003F038FABB
:1058D000DCE142F62000C0F6010003F031FAD5E128
:1058E00042F63800C0F6010003F02AFACEE142F693
:1058F0005000C0F6010003F023FAC7E142F6700041
:10590000C0F6010003F01CFAC0E142F68000C0F6C8
:10591000010003F015FAB9E142F69400C0F6010067
:1059200003F00EFAB2E142F6A800C0F6010003F05F
:1059300007FAABE142F6C000C0F6010003F000FA3E
:10594000A4E142F6D800C0F6010003F0F9F99DE1A8
:1059500042F6F400C0F6010003F0F2F996E142F6D7
:105960001410C0F6010003F0EBF98FE142F6341099
:10597000C0F6010003F0E4F988E142F65010C0F6E9
:10598000010003F0DDF981E142F66810C0F6010084
:1059900003F0D6F97AE142F68010C0F6010003F078
:1059A000CFF973E142F69C10C0F6010003F0C8F98C
:1059B0006CE142F6B410C0F6010003F0C1F940F604
:1059C000D453C2F200034FF001021A705EE142F6B6
:1059D000E010C0F6010003F0B3F94FF48060C4F2A8
:1059E00002004FF40041FFF711F940F6D153C2F223
:1059F00000034FF001021A7048E142F60020C0F6A1
:105A0000010003F09DF94FF48060C4F202004FF4EE
:105A10000041FFF7EDF84FF48060C4F202004FF44C
:105A20008071FFF7F3F840F6D153C2F200034FF054
:105A300000021A7040F6D053C2F200034FF0000289
:105A40001A7040F6E050C2F200004FF000014FF033
:105A5000140203F087FD19E142F62420C0F601008C
:105A600003F06EF907F108031B68DA7840F6E0539B
:105A7000C2F200031A7007F108031B689A7840F617
:105A8000E053C2F200035A7007F108031B685A780A
:105A900040F6E053C2F200039A7007F108031B6856
:105AA0001A7840F6E053C2F20003DA7007F10803F7
:105AB0001B68DA7940F6E053C2F200031A7107F16D
:105AC00008031B689A7940F6E053C2F200035A714A
:105AD00007F108031B685A7940F6E053C2F200034D
